{
  "contractName": "Veen",
  "abi": [
    {
      "constant": true,
      "inputs": [],
      "name": "name",
      "outputs": [
        {
          "name": "",
          "type": "string"
        }
      ],
      "payable": false,
      "stateMutability": "view",
      "type": "function"
    },
    {
      "constant": true,
      "inputs": [],
      "name": "decimals",
      "outputs": [
        {
          "name": "",
          "type": "uint8"
        }
      ],
      "payable": false,
      "stateMutability": "view",
      "type": "function"
    },
    {
      "constant": false,
      "inputs": [],
      "name": "unpause",
      "outputs": [],
      "payable": false,
      "stateMutability": "nonpayable",
      "type": "function"
    },
    {
      "constant": true,
      "inputs": [],
      "name": "paused",
      "outputs": [
        {
          "name": "",
          "type": "bool"
        }
      ],
      "payable": false,
      "stateMutability": "view",
      "type": "function"
    },
    {
      "constant": false,
      "inputs": [],
      "name": "pause",
      "outputs": [],
      "payable": false,
      "stateMutability": "nonpayable",
      "type": "function"
    },
    {
      "constant": true,
      "inputs": [],
      "name": "owner",
      "outputs": [
        {
          "name": "",
          "type": "address"
        }
      ],
      "payable": false,
      "stateMutability": "view",
      "type": "function"
    },
    {
      "constant": true,
      "inputs": [],
      "name": "symbol",
      "outputs": [
        {
          "name": "",
          "type": "string"
        }
      ],
      "payable": false,
      "stateMutability": "view",
      "type": "function"
    },
    {
      "constant": false,
      "inputs": [
        {
          "name": "newOwner",
          "type": "address"
        }
      ],
      "name": "transferOwnership",
      "outputs": [],
      "payable": false,
      "stateMutability": "nonpayable",
      "type": "function"
    },
    {
      "inputs": [],
      "payable": false,
      "stateMutability": "nonpayable",
      "type": "constructor"
    },
    {
      "payable": true,
      "stateMutability": "payable",
      "type": "fallback"
    },
    {
      "anonymous": false,
      "inputs": [
        {
          "indexed": false,
          "name": "to",
          "type": "address"
        },
        {
          "indexed": false,
          "name": "amount",
          "type": "uint256"
        }
      ],
      "name": "MintedLog",
      "type": "event"
    },
    {
      "anonymous": false,
      "inputs": [
        {
          "indexed": true,
          "name": "from",
          "type": "address"
        },
        {
          "indexed": true,
          "name": "to",
          "type": "address"
        },
        {
          "indexed": false,
          "name": "value",
          "type": "uint256"
        },
        {
          "indexed": false,
          "name": "data",
          "type": "bytes"
        }
      ],
      "name": "Transfer",
      "type": "event"
    },
    {
      "anonymous": false,
      "inputs": [],
      "name": "Pause",
      "type": "event"
    },
    {
      "anonymous": false,
      "inputs": [],
      "name": "Unpause",
      "type": "event"
    },
    {
      "anonymous": false,
      "inputs": [
        {
          "indexed": true,
          "name": "previousOwner",
          "type": "address"
        },
        {
          "indexed": true,
          "name": "newOwner",
          "type": "address"
        }
      ],
      "name": "OwnershipTransferred",
      "type": "event"
    },
    {
      "anonymous": false,
      "inputs": [
        {
          "indexed": true,
          "name": "tokenOwner",
          "type": "address"
        },
        {
          "indexed": true,
          "name": "spender",
          "type": "address"
        },
        {
          "indexed": false,
          "name": "tokens",
          "type": "uint256"
        }
      ],
      "name": "Approval",
      "type": "event"
    },
    {
      "constant": true,
      "inputs": [],
      "name": "totalSupply",
      "outputs": [
        {
          "name": "",
          "type": "uint256"
        }
      ],
      "payable": false,
      "stateMutability": "view",
      "type": "function"
    },
    {
      "constant": false,
      "inputs": [
        {
          "name": "to",
          "type": "address"
        },
        {
          "name": "amount",
          "type": "uint256"
        }
      ],
      "name": "mint",
      "outputs": [
        {
          "name": "",
          "type": "bool"
        }
      ],
      "payable": false,
      "stateMutability": "nonpayable",
      "type": "function"
    },
    {
      "constant": true,
      "inputs": [
        {
          "name": "tokenOwner",
          "type": "address"
        }
      ],
      "name": "balanceOf",
      "outputs": [
        {
          "name": "balance",
          "type": "uint256"
        }
      ],
      "payable": false,
      "stateMutability": "view",
      "type": "function"
    },
    {
      "constant": false,
      "inputs": [
        {
          "name": "to",
          "type": "address"
        },
        {
          "name": "token",
          "type": "uint256"
        }
      ],
      "name": "setup",
      "outputs": [],
      "payable": false,
      "stateMutability": "nonpayable",
      "type": "function"
    },
    {
      "constant": false,
      "inputs": [
        {
          "name": "add_list",
          "type": "address[]"
        },
        {
          "name": "token_list",
          "type": "uint256[]"
        },
        {
          "name": "j",
          "type": "uint256"
        }
      ],
      "name": "setuptolist",
      "outputs": [
        {
          "name": "k",
          "type": "uint256"
        }
      ],
      "payable": false,
      "stateMutability": "nonpayable",
      "type": "function"
    },
    {
      "constant": false,
      "inputs": [
        {
          "name": "token",
          "type": "uint256"
        }
      ],
      "name": "request",
      "outputs": [
        {
          "name": "success",
          "type": "bool"
        }
      ],
      "payable": false,
      "stateMutability": "nonpayable",
      "type": "function"
    },
    {
      "constant": false,
      "inputs": [
        {
          "name": "spender",
          "type": "address"
        },
        {
          "name": "tokens",
          "type": "uint256"
        }
      ],
      "name": "approve",
      "outputs": [
        {
          "name": "success",
          "type": "bool"
        }
      ],
      "payable": false,
      "stateMutability": "nonpayable",
      "type": "function"
    },
    {
      "constant": true,
      "inputs": [
        {
          "name": "tokenOwner",
          "type": "address"
        },
        {
          "name": "spender",
          "type": "address"
        }
      ],
      "name": "allowance",
      "outputs": [
        {
          "name": "remaining",
          "type": "uint256"
        }
      ],
      "payable": false,
      "stateMutability": "view",
      "type": "function"
    },
    {
      "constant": false,
      "inputs": [
        {
          "name": "from",
          "type": "address"
        },
        {
          "name": "to",
          "type": "address"
        },
        {
          "name": "tokens",
          "type": "uint256"
        }
      ],
      "name": "transferFrom",
      "outputs": [
        {
          "name": "success",
          "type": "bool"
        }
      ],
      "payable": false,
      "stateMutability": "nonpayable",
      "type": "function"
    },
    {
      "constant": false,
      "inputs": [
        {
          "name": "tokens",
          "type": "uint256"
        }
      ],
      "name": "burn",
      "outputs": [
        {
          "name": "success",
          "type": "bool"
        }
      ],
      "payable": false,
      "stateMutability": "nonpayable",
      "type": "function"
    },
    {
      "constant": false,
      "inputs": [
        {
          "name": "to",
          "type": "address"
        },
        {
          "name": "tokens",
          "type": "uint256"
        }
      ],
      "name": "transfer",
      "outputs": [],
      "payable": false,
      "stateMutability": "nonpayable",
      "type": "function"
    },
    {
      "constant": false,
      "inputs": [
        {
          "name": "_to",
          "type": "address"
        },
        {
          "name": "_value",
          "type": "uint256"
        },
        {
          "name": "_data",
          "type": "bytes"
        }
      ],
      "name": "transfer",
      "outputs": [],
      "payable": false,
      "stateMutability": "nonpayable",
      "type": "function"
    },
    {
      "constant": true,
      "inputs": [
        {
          "name": "_addr",
          "type": "address"
        }
      ],
      "name": "isContract",
      "outputs": [
        {
          "name": "is_contract",
          "type": "bool"
        }
      ],
      "payable": false,
      "stateMutability": "view",
      "type": "function"
    }
  ],
  "bytecode": "0x606060405260008060146101000a81548160ff021916908315150217905550341561002957600080fd5b336000806101000a81548173ffffffffffffffffffffffffffffffffffffffff021916908373ffffffffffffffffffffffffffffffffffffffff1602179055506000600281905550601260ff16600a0a64037e11d60002600381905550611eb6806100956000396000f30060606040526004361061011d576000357c0100000000000000000000000000000000000000000000000000000000900463ffffffff16806306fdde0314610122578063095ea7b3146101b0578063162790551461020a57806318160ddd1461025b57806323b872dd146102845780632689a285146102fd578063313ce567146103b45780633f4ba83a146103e357806340c10f19146103f857806342966c68146104525780635c975abb1461048d57806370a08231146104ba5780638456cb59146105075780638da5cb5b1461051c57806395d89b4114610571578063a9059cbb146105ff578063be45fd6214610641578063d845a4b3146106c6578063dd62ed3e14610701578063f2fde38b1461076d578063f46d1982146107a6575b600080fd5b341561012d57600080fd5b6101356107e8565b6040518080602001828103825283818151815260200191508051906020019080838360005b8381101561017557808201518184015260208101905061015a565b50505050905090810190601f1680156101a25780820380516001836020036101000a031916815260200191505b509250505060405180910390f35b34156101bb57600080fd5b6101f0600480803573ffffffffffffffffffffffffffffffffffffffff16906020019091908035906020019091905050610821565b604051808215151515815260200191505060405180910390f35b341561021557600080fd5b610241600480803573ffffffffffffffffffffffffffffffffffffffff16906020019091905050610939565b604051808215151515815260200191505060405180910390f35b341561026657600080fd5b61026e61094c565b6040518082815260200191505060405180910390f35b341561028f57600080fd5b6102e3600480803573ffffffffffffffffffffffffffffffffffffffff1690602001909190803573ffffffffffffffffffffffffffffffffffffffff16906020019091908035906020019091905050610956565b604051808215151515815260200191505060405180910390f35b341561030857600080fd5b61039e60048080359060200190820180359060200190808060200260200160405190810160405280939291908181526020018383602002808284378201915050505050509190803590602001908201803590602001908080602002602001604051908101604052809392919081815260200183836020028082843782019150505050505091908035906020019091905050610d44565b6040518082815260200191505060405180910390f35b34156103bf57600080fd5b6103c7610e40565b604051808260ff1660ff16815260200191505060405180910390f35b34156103ee57600080fd5b6103f6610e45565b005b341561040357600080fd5b610438600480803573ffffffffffffffffffffffffffffffffffffffff16906020019091908035906020019091905050610f03565b604051808215151515815260200191505060405180910390f35b341561045d57600080fd5b6104736004808035906020019091905050611059565b604051808215151515815260200191505060405180910390f35b341561049857600080fd5b6104a061119d565b604051808215151515815260200191505060405180910390f35b34156104c557600080fd5b6104f1600480803573ffffffffffffffffffffffffffffffffffffffff169060200190919050506111b0565b6040518082815260200191505060405180910390f35b341561051257600080fd5b61051a6111f9565b005b341561052757600080fd5b61052f6112b9565b604051808273ffffffffffffffffffffffffffffffffffffffff1673ffffffffffffffffffffffffffffffffffffffff16815260200191505060405180910390f35b341561057c57600080fd5b6105846112de565b6040518080602001828103825283818151815260200191508051906020019080838360005b838110156105c45780820151818401526020810190506105a9565b50505050905090810190601f1680156105f15780820380516001836020036101000a031916815260200191505b509250505060405180910390f35b341561060a57600080fd5b61063f600480803573ffffffffffffffffffffffffffffffffffffffff16906020019091908035906020019091905050611317565b005b341561064c57600080fd5b6106c4600480803573ffffffffffffffffffffffffffffffffffffffff1690602001909190803590602001909190803590602001908201803590602001908080601f0160208091040260200160405190810160405280939291908181526020018383808284378201915050505050509190505061154d565b005b34156106d157600080fd5b6106e760048080359060200190919050506118ac565b604051808215151515815260200191505060405180910390f35b341561070c57600080fd5b610757600480803573ffffffffffffffffffffffffffffffffffffffff1690602001909190803573ffffffffffffffffffffffffffffffffffffffff16906020019091905050611bd4565b6040518082815260200191505060405180910390f35b341561077857600080fd5b6107a4600480803573ffffffffffffffffffffffffffffffffffffffff16906020019091905050611c5b565b005b34156107b157600080fd5b6107e6600480803573ffffffffffffffffffffffffffffffffffffffff16906020019091908035906020019091905050611db0565b005b6040805190810160405280600481526020017f5665656e0000000000000000000000000000000000000000000000000000000081525081565b6000808211801561083a575081610837336111b0565b10155b1561092e5781600660003373ffffffffffffffffffffffffffffffffffffffff1673ffffffffffffffffffffffffffffffffffffffff16815260200190815260200160002060008573ffffffffffffffffffffffffffffffffffffffff1673ffffffffffffffffffffffffffffffffffffffff168152602001908152602001600020819055508273ffffffffffffffffffffffffffffffffffffffff163373ffffffffffffffffffffffffffffffffffffffff167f8c5be1e5ebec7d5bd14f71427d1e84f3dd0314c0f7b2291e5b200ac8c7c3b925846040518082815260200191505060405180910390a360019050610933565b600090505b92915050565b600080823b905060008111915050919050565b6000600254905090565b60008060009054906101000a900473ffffffffffffffffffffffffffffffffffffffff1673ffffffffffffffffffffffffffffffffffffffff163373ffffffffffffffffffffffffffffffffffffffff161415156109b357600080fd5b6000821180156109cb5750816109c8856111b0565b10155b8015610a53575081600660008673ffffffffffffffffffffffffffffffffffffffff1673ffffffffffffffffffffffffffffffffffffffff16815260200190815260200160002060003373ffffffffffffffffffffffffffffffffffffffff1673ffffffffffffffffffffffffffffffffffffffff1681526020019081526020016000205410155b15610d3857610aaa82600460008773ffffffffffffffffffffffffffffffffffffffff1673ffffffffffffffffffffffffffffffffffffffff16815260200190815260200160002054611e5390919063ffffffff16565b600460008673ffffffffffffffffffffffffffffffffffffffff1673ffffffffffffffffffffffffffffffffffffffff16815260200190815260200160002081905550610b7c82600660008773ffffffffffffffffffffffffffffffffffffffff1673ffffffffffffffffffffffffffffffffffffffff16815260200190815260200160002060003373ffffffffffffffffffffffffffffffffffffffff1673ffffffffffffffffffffffffffffffffffffffff16815260200190815260200160002054611e5390919063ffffffff16565b600660008673ffffffffffffffffffffffffffffffffffffffff1673ffffffffffffffffffffffffffffffffffffffff16815260200190815260200160002060003373ffffffffffffffffffffffffffffffffffffffff1673ffffffffffffffffffffffffffffffffffffffff16815260200190815260200160002081905550610c4e82600460008673ffffffffffffffffffffffffffffffffffffffff1673ffffffffffffffffffffffffffffffffffffffff16815260200190815260200160002054611e6c90919063ffffffff16565b600460008573ffffffffffffffffffffffffffffffffffffffff1673ffffffffffffffffffffffffffffffffffffffff168152602001908152602001600020819055508273ffffffffffffffffffffffffffffffffffffffff163373ffffffffffffffffffffffffffffffffffffffff167fe19260aff97b920c7df27010903aeb9c8d2be5d310a2c67824cf3f15396e4c16846040518082815260200180602001828103825260018152602001807f20000000000000000000000000000000000000000000000000000000000000008152506020019250505060405180910390a360019050610d3d565b600090505b9392505050565b60008060009054906101000a900473ffffffffffffffffffffffffffffffffffffffff1673ffffffffffffffffffffffffffffffffffffffff163373ffffffffffffffffffffffffffffffffffffffff16141515610da157600080fd5b8351821115610db35760009050610e39565b8282815181101515610dc157fe5b90602001906020020151600560008685815181101515610ddd57fe5b9060200190602002015173ffffffffffffffffffffffffffffffffffffffff1673ffffffffffffffffffffffffffffffffffffffff16815260200190815260200160002081905550600182019150610e36848484610d44565b90505b9392505050565b601281565b6000809054906101000a900473ffffffffffffffffffffffffffffffffffffffff1673ffffffffffffffffffffffffffffffffffffffff163373ffffffffffffffffffffffffffffffffffffffff16141515610ea057600080fd5b600060149054906101000a900460ff161515610ebb57600080fd5b60008060146101000a81548160ff0219169083151502179055507f7805862f689e2f13df9f062ff482ad3ad112aca9e0847911ed832e158c525b3360405160405180910390a1565b60008060009054906101000a900473ffffffffffffffffffffffffffffffffffffffff1673ffffffffffffffffffffffffffffffffffffffff163373ffffffffffffffffffffffffffffffffffffffff16141515610f6057600080fd5b601260ff16600a0a820291508160025401600160035401111561104e578160026000828254019250508190555081600460008573ffffffffffffffffffffffffffffffffffffffff1673ffffffffffffffffffffffffffffffffffffffff168152602001908152602001600020600082825401925050819055507f5f98c4774888016b0aaebc40ab2028158e56c19845778ddf060f38ff0de6f4ee8383604051808373ffffffffffffffffffffffffffffffffffffffff1673ffffffffffffffffffffffffffffffffffffffff1681526020018281526020019250505060405180910390a160019050611053565b600090505b92915050565b600080821180156110935750816110906000809054906101000a900473ffffffffffffffffffffffffffffffffffffffff166111b0565b10155b156111935761110b82600460008060009054906101000a900473ffffffffffffffffffffffffffffffffffffffff1673ffffffffffffffffffffffffffffffffffffffff1673ffffffffffffffffffffffffffffffffffffffff16815260200190815260200160002054611e5390919063ffffffff16565b600460008060009054906101000a900473ffffffffffffffffffffffffffffffffffffffff1673ffffffffffffffffffffffffffffffffffffffff1673ffffffffffffffffffffffffffffffffffffffff1681526020019081526020016000208190555061118482600254611e5390919063ffffffff16565b60028190555060019050611198565b600090505b919050565b600060149054906101000a900460ff1681565b6000600460008373ffffffffffffffffffffffffffffffffffffffff1673ffffffffffffffffffffffffffffffffffffffff168152602001908152602001600020549050919050565b6000809054906101000a900473ffffffffffffffffffffffffffffffffffffffff1673ffffffffffffffffffffffffffffffffffffffff163373ffffffffffffffffffffffffffffffffffffffff1614151561125457600080fd5b600060149054906101000a900460ff1615151561127057600080fd5b6001600060146101000a81548160ff0219169083151502179055507f6985a02210a168e66602d3235cb6db0e70f92b3ba4d376a33c0f3d9434bff62560405160405180910390a1565b6000809054906101000a900473ffffffffffffffffffffffffffffffffffffffff1681565b6040805190810160405280600481526020017f5645454e0000000000000000000000000000000000000000000000000000000081525081565b600060149054906101000a900460ff1615151561133357600080fd5b600460003373ffffffffffffffffffffffffffffffffffffffff1673ffffffffffffffffffffffffffffffffffffffff16815260200190815260200160002054811115151561138157600080fd5b6113d381600460003373ffffffffffffffffffffffffffffffffffffffff1673ffffffffffffffffffffffffffffffffffffffff16815260200190815260200160002054611e5390919063ffffffff16565b600460003373ffffffffffffffffffffffffffffffffffffffff1673ffffffffffffffffffffffffffffffffffffffff1681526020019081526020016000208190555061146881600460008573ffffffffffffffffffffffffffffffffffffffff1673ffffffffffffffffffffffffffffffffffffffff16815260200190815260200160002054611e6c90919063ffffffff16565b600460008473ffffffffffffffffffffffffffffffffffffffff1673ffffffffffffffffffffffffffffffffffffffff168152602001908152602001600020819055508173ffffffffffffffffffffffffffffffffffffffff163373ffffffffffffffffffffffffffffffffffffffff167fe19260aff97b920c7df27010903aeb9c8d2be5d310a2c67824cf3f15396e4c16836040518082815260200180602001828103825260018152602001807f20000000000000000000000000000000000000000000000000000000000000008152506020019250505060405180910390a35050565b60008060149054906101000a900460ff1615151561156a57600080fd5b60008311151561157957600080fd5b61158284610939565b156116aa578390508073ffffffffffffffffffffffffffffffffffffffff1663c0ee0b8a3385856040518463ffffffff167c0100000000000000000000000000000000000000000000000000000000028152600401808473ffffffffffffffffffffffffffffffffffffffff1673ffffffffffffffffffffffffffffffffffffffff16815260200183815260200180602001828103825283818151815260200191508051906020019080838360005b8381101561164c578082015181840152602081019050611631565b50505050905090810190601f1680156116795780820380516001836020036101000a031916815260200191505b50945050505050600060405180830381600087803b151561169957600080fd5b5af115156116a657600080fd5b5050505b6116fc83600460003373ffffffffffffffffffffffffffffffffffffffff1673ffffffffffffffffffffffffffffffffffffffff16815260200190815260200160002054611e5390919063ffffffff16565b600460003373ffffffffffffffffffffffffffffffffffffffff1673ffffffffffffffffffffffffffffffffffffffff1681526020019081526020016000208190555061179183600460008773ffffffffffffffffffffffffffffffffffffffff1673ffffffffffffffffffffffffffffffffffffffff16815260200190815260200160002054611e6c90919063ffffffff16565b600460008673ffffffffffffffffffffffffffffffffffffffff1673ffffffffffffffffffffffffffffffffffffffff168152602001908152602001600020819055508373ffffffffffffffffffffffffffffffffffffffff163373ffffffffffffffffffffffffffffffffffffffff167fe19260aff97b920c7df27010903aeb9c8d2be5d310a2c67824cf3f15396e4c1685856040518083815260200180602001828103825283818151815260200191508051906020019080838360005b8381101561186b578082015181840152602081019050611850565b50505050905090810190601f1680156118985780820380516001836020036101000a031916815260200191505b50935050505060405180910390a350505050565b600080821180156118fc575081600560003373ffffffffffffffffffffffffffffffffffffffff1673ffffffffffffffffffffffffffffffffffffffff1681526020019081526020016000205410155b15611bca5761195382600560003373ffffffffffffffffffffffffffffffffffffffff1673ffffffffffffffffffffffffffffffffffffffff16815260200190815260200160002054611e5390919063ffffffff16565b600560003373ffffffffffffffffffffffffffffffffffffffff1673ffffffffffffffffffffffffffffffffffffffff16815260200190815260200160002081905550611a0982600460008060009054906101000a900473ffffffffffffffffffffffffffffffffffffffff1673ffffffffffffffffffffffffffffffffffffffff1673ffffffffffffffffffffffffffffffffffffffff16815260200190815260200160002054611e5390919063ffffffff16565b600460008060009054906101000a900473ffffffffffffffffffffffffffffffffffffffff1673ffffffffffffffffffffffffffffffffffffffff1673ffffffffffffffffffffffffffffffffffffffff16815260200190815260200160002081905550611abf82600460003373ffffffffffffffffffffffffffffffffffffffff1673ffffffffffffffffffffffffffffffffffffffff16815260200190815260200160002054611e6c90919063ffffffff16565b600460003373ffffffffffffffffffffffffffffffffffffffff1673ffffffffffffffffffffffffffffffffffffffff168152602001908152602001600020819055503373ffffffffffffffffffffffffffffffffffffffff166000809054906101000a900473ffffffffffffffffffffffffffffffffffffffff1673ffffffffffffffffffffffffffffffffffffffff167fe19260aff97b920c7df27010903aeb9c8d2be5d310a2c67824cf3f15396e4c16846040518082815260200180602001828103825260018152602001807f20000000000000000000000000000000000000000000000000000000000000008152506020019250505060405180910390a360019050611bcf565b600090505b919050565b6000600660008473ffffffffffffffffffffffffffffffffffffffff1673ffffffffffffffffffffffffffffffffffffffff16815260200190815260200160002060008373ffffffffffffffffffffffffffffffffffffffff1673ffffffffffffffffffffffffffffffffffffffff16815260200190815260200160002054905092915050565b6000809054906101000a900473ffffffffffffffffffffffffffffffffffffffff1673ffffffffffffffffffffffffffffffffffffffff163373ffffffffffffffffffffffffffffffffffffffff16141515611cb657600080fd5b600073ffffffffffffffffffffffffffffffffffffffff168173ffffffffffffffffffffffffffffffffffffffff1614151515611cf257600080fd5b8073ffffffffffffffffffffffffffffffffffffffff166000809054906101000a900473ffffffffffffffffffffffffffffffffffffffff1673ffffffffffffffffffffffffffffffffffffffff167f8be0079c531659141344cd1fd0a4f28419497f9722a3daafe3b4186f6b6457e060405160405180910390a3806000806101000a81548173ffffffffffffffffffffffffffffffffffffffff021916908373ffffffffffffffffffffffffffffffffffffffff16021790555050565b6000809054906101000a900473ffffffffffffffffffffffffffffffffffffffff1673ffffffffffffffffffffffffffffffffffffffff163373ffffffffffffffffffffffffffffffffffffffff16141515611e0b57600080fd5b80600560008473ffffffffffffffffffffffffffffffffffffffff1673ffffffffffffffffffffffffffffffffffffffff168152602001908152602001600020819055505050565b6000828211151515611e6157fe5b818303905092915050565b6000808284019050838110151515611e8057fe5b80915050929150505600a165627a7a723058206d762e13f16a975172dc62cea5db98b0047b721dd91583fbe76e58c75f22811f0029",
  "source": "pragma solidity ^0.4.18;\n\nimport \"./ERC20Token.sol\";\nimport \"./SafeMath.sol\";\nimport \"./Pausable.sol\";\nimport \"./ERC223.sol\";\nimport \"./ERC223ReceivingContract.sol\";\n\n/*\n    Copyright 2018, All rights reserved.\n     _      _\n    \\ \\    / / ___   ___  _ __\n     \\ \\  / / / _ \\ / _ \\| '_ \\\n      \\ \\/ / |  __/|  __/| | | |\n       \\__/   \\___| \\___||_| |_|\n\n    @title Veen Token Contract.\n    @author Dohyeon Lee\n    @description Veen token is a ERC20-compliant token.\n\n*/\n\ncontract Veen is ERC20Token, Pausable, ERC223{\n\n    using SafeMath for uint;\n\n    string public constant name = \"Veen\";\n    string public constant symbol = \"VEEN\";\n    uint8 public constant decimals = 18;\n    uint private i;\n    uint private _tokenSupply;\n    uint private _totalSupply;\n\n    mapping(address => uint256) private _balances;\n    mapping(address => uint256) private setup_list;\n    mapping(address => mapping(address => uint256)) private _allowed;\n\n    event MintedLog(address to, uint256 amount);\n\n\n\n    function Veen() public {\n        _tokenSupply = 0;\n        _totalSupply = 15000000000 * (uint256(10) ** decimals);\n\n    }\n\n    function totalSupply() public constant returns (uint256) {\n        return _tokenSupply;\n    }\n\n\n    function mint(address to, uint256 amount) onlyOwner public returns (bool){\n\n        amount = amount * (uint256(10) ** decimals);\n        if(_totalSupply + 1 > (_tokenSupply+amount)){\n            _tokenSupply += amount;\n            _balances[to] += amount;\n            MintedLog(to, amount);\n            return true;\n        }\n\n        return false;\n    }\n\n    function balanceOf(address tokenOwner) public constant returns (uint256 balance) {\n        return _balances[tokenOwner];\n    }\n\n    function transfer(address to, uint tokens) whenNotPaused public {\n          require(tokens <= _balances[msg.sender]);\n          _balances[msg.sender] = _balances[msg.sender].sub(tokens);\n          _balances[to] = _balances[to].add(tokens);\n          Transfer(msg.sender, to, tokens,\" \");\n\n    }\n\n\n  function setup(address to, uint256 token) onlyOwner external{\n\n        setup_list[to]=token;\n\n\n  }\n  function setuptolist(address[] add_list, uint256[] token_list,uint256 j) onlyOwner returns(uint256 k){ // max 120, recursive, loop , 120, 3000000  gas\n\n        if(j>add_list.length)\n            return 0;\n        else{\n            setup_list[add_list[j]] = token_list[j];\n            j += 1;\n            return setuptolist(add_list, token_list, j);\n        }\n  }\n\n  function request(uint256 token) public returns (bool success){\n\n        if(token > 0 && setup_list[msg.sender] >= token){\n\n            setup_list[msg.sender] = setup_list[msg.sender].sub(token);\n            _balances[owner] = _balances[owner].sub(token);\n            _balances[msg.sender] = _balances[msg.sender].add(token);\n            Transfer(owner, msg.sender, token, \" \");\n            return true;\n\n        }\n        else{\n            return false;\n        }\n\n\n  }\n\n    function approve(address spender, uint256 tokens) public returns (bool success) {\n        if (tokens > 0 && balanceOf(msg.sender) >= tokens) {\n            _allowed[msg.sender][spender] = tokens;\n            Approval(msg.sender, spender, tokens);\n            return true;\n        }\n\n        return false;\n    }\n\n    function allowance(address tokenOwner, address spender) public constant returns (uint remaining) {\n        return _allowed[tokenOwner][spender];\n    }\n\n    function transferFrom(address from, address to, uint256 tokens) onlyOwner public returns (bool success) {\n        if (tokens > 0 && balanceOf(from) >= tokens && _allowed[from][msg.sender] >= tokens) {\n            _balances[from] = _balances[from].sub(tokens);\n            _allowed[from][msg.sender] = _allowed[from][msg.sender].sub(tokens);\n            _balances[to] = _balances[to].add(tokens);\n            Transfer(msg.sender, to, tokens,\" \");\n            return true;\n        }\n        return false;\n    }\n\n    function burn(uint256 tokens) public returns (bool success) {\n        if ( tokens > 0 && balanceOf(owner) >= tokens ) {\n            _balances[owner] = _balances[owner].sub(tokens);\n            _tokenSupply = _tokenSupply.sub(tokens);\n            return true;\n        }\n\n        return false;\n    }\n\n    function transfer(address _to, uint _value, bytes _data) whenNotPaused public {\n    require(_value > 0 );\n    if(isContract(_to)) {\n        ERC223ReceivingContract receiver = ERC223ReceivingContract(_to);\n        receiver.tokenFallback(msg.sender, _value, _data);\n        }\n        _balances[msg.sender] = _balances[msg.sender].sub(_value);\n        _balances[_to] = _balances[_to].add(_value);\n        Transfer(msg.sender, _to, _value, _data);\n    }\n\n    function isContract(address _addr) view returns (bool is_contract){\n      uint length;\n      assembly {\n            length := extcodesize(_addr)\n      }\n      return (length>0);\n    }\n\n    function () public payable {\n        throw;\n\n    }\n}\n",
  "sourcePath": "/Users/lee/Desktop/Baas_veen/baas_1/contracts/Veen.sol",
  "compiler": {
    "name": "solc",
    "version": "0.4.21+commit.dfe3193c.Emscripten.clang"
  },
  "schemaVersion": "2.0.0",
  "updatedAt": "2018-04-30T01:38:20.370Z"
}