{
  "contractName": "Veen",
  "abi": [
    {
      "constant": true,
      "inputs": [],
      "name": "name",
      "outputs": [
        {
          "name": "",
          "type": "string"
        }
      ],
      "payable": false,
      "stateMutability": "view",
      "type": "function"
    },
    {
      "constant": true,
      "inputs": [],
      "name": "decimals",
      "outputs": [
        {
          "name": "",
          "type": "uint8"
        }
      ],
      "payable": false,
      "stateMutability": "view",
      "type": "function"
    },
    {
      "constant": false,
      "inputs": [],
      "name": "unpause",
      "outputs": [],
      "payable": false,
      "stateMutability": "nonpayable",
      "type": "function"
    },
    {
      "constant": true,
      "inputs": [],
      "name": "paused",
      "outputs": [
        {
          "name": "",
          "type": "bool"
        }
      ],
      "payable": false,
      "stateMutability": "view",
      "type": "function"
    },
    {
      "constant": false,
      "inputs": [],
      "name": "pause",
      "outputs": [],
      "payable": false,
      "stateMutability": "nonpayable",
      "type": "function"
    },
    {
      "constant": true,
      "inputs": [],
      "name": "owner",
      "outputs": [
        {
          "name": "",
          "type": "address"
        }
      ],
      "payable": false,
      "stateMutability": "view",
      "type": "function"
    },
    {
      "constant": true,
      "inputs": [],
      "name": "symbol",
      "outputs": [
        {
          "name": "",
          "type": "string"
        }
      ],
      "payable": false,
      "stateMutability": "view",
      "type": "function"
    },
    {
      "constant": false,
      "inputs": [
        {
          "name": "newOwner",
          "type": "address"
        }
      ],
      "name": "transferOwnership",
      "outputs": [],
      "payable": false,
      "stateMutability": "nonpayable",
      "type": "function"
    },
    {
      "inputs": [],
      "payable": false,
      "stateMutability": "nonpayable",
      "type": "constructor"
    },
    {
      "payable": true,
      "stateMutability": "payable",
      "type": "fallback"
    },
    {
      "anonymous": false,
      "inputs": [
        {
          "indexed": false,
          "name": "to",
          "type": "address"
        },
        {
          "indexed": false,
          "name": "amount",
          "type": "uint256"
        }
      ],
      "name": "MintedLog",
      "type": "event"
    },
    {
      "anonymous": false,
      "inputs": [
        {
          "indexed": false,
          "name": "from",
          "type": "address"
        },
        {
          "indexed": false,
          "name": "to",
          "type": "address"
        },
        {
          "indexed": false,
          "name": "amount",
          "type": "uint256"
        }
      ],
      "name": "TransferLog",
      "type": "event"
    },
    {
      "anonymous": false,
      "inputs": [],
      "name": "Pause",
      "type": "event"
    },
    {
      "anonymous": false,
      "inputs": [],
      "name": "Unpause",
      "type": "event"
    },
    {
      "anonymous": false,
      "inputs": [
        {
          "indexed": true,
          "name": "previousOwner",
          "type": "address"
        },
        {
          "indexed": true,
          "name": "newOwner",
          "type": "address"
        }
      ],
      "name": "OwnershipTransferred",
      "type": "event"
    },
    {
      "anonymous": false,
      "inputs": [
        {
          "indexed": true,
          "name": "from",
          "type": "address"
        },
        {
          "indexed": true,
          "name": "to",
          "type": "address"
        },
        {
          "indexed": false,
          "name": "tokens",
          "type": "uint256"
        }
      ],
      "name": "Transfer",
      "type": "event"
    },
    {
      "anonymous": false,
      "inputs": [
        {
          "indexed": true,
          "name": "tokenOwner",
          "type": "address"
        },
        {
          "indexed": true,
          "name": "spender",
          "type": "address"
        },
        {
          "indexed": false,
          "name": "tokens",
          "type": "uint256"
        }
      ],
      "name": "Approval",
      "type": "event"
    },
    {
      "constant": true,
      "inputs": [],
      "name": "totalSupply",
      "outputs": [
        {
          "name": "",
          "type": "uint256"
        }
      ],
      "payable": false,
      "stateMutability": "view",
      "type": "function"
    },
    {
      "constant": false,
      "inputs": [
        {
          "name": "to",
          "type": "address"
        },
        {
          "name": "amount",
          "type": "uint256"
        }
      ],
      "name": "mint",
      "outputs": [
        {
          "name": "",
          "type": "bool"
        }
      ],
      "payable": false,
      "stateMutability": "nonpayable",
      "type": "function"
    },
    {
      "constant": true,
      "inputs": [
        {
          "name": "tokenOwner",
          "type": "address"
        }
      ],
      "name": "balanceOf",
      "outputs": [
        {
          "name": "balance",
          "type": "uint256"
        }
      ],
      "payable": false,
      "stateMutability": "view",
      "type": "function"
    },
    {
      "constant": false,
      "inputs": [
        {
          "name": "to",
          "type": "address"
        },
        {
          "name": "tokens",
          "type": "uint256"
        }
      ],
      "name": "transfer",
      "outputs": [
        {
          "name": "success",
          "type": "bool"
        }
      ],
      "payable": false,
      "stateMutability": "nonpayable",
      "type": "function"
    },
    {
      "constant": false,
      "inputs": [
        {
          "name": "to",
          "type": "address"
        },
        {
          "name": "token",
          "type": "uint256"
        }
      ],
      "name": "setup",
      "outputs": [],
      "payable": false,
      "stateMutability": "nonpayable",
      "type": "function"
    },
    {
      "constant": false,
      "inputs": [
        {
          "name": "add_list",
          "type": "address[]"
        },
        {
          "name": "token_list",
          "type": "uint256[]"
        },
        {
          "name": "j",
          "type": "uint256"
        }
      ],
      "name": "setuptolist",
      "outputs": [
        {
          "name": "k",
          "type": "uint256"
        }
      ],
      "payable": false,
      "stateMutability": "nonpayable",
      "type": "function"
    },
    {
      "constant": false,
      "inputs": [
        {
          "name": "token",
          "type": "uint256"
        }
      ],
      "name": "request",
      "outputs": [
        {
          "name": "success",
          "type": "bool"
        }
      ],
      "payable": false,
      "stateMutability": "nonpayable",
      "type": "function"
    },
    {
      "constant": false,
      "inputs": [
        {
          "name": "spender",
          "type": "address"
        },
        {
          "name": "tokens",
          "type": "uint256"
        }
      ],
      "name": "approve",
      "outputs": [
        {
          "name": "success",
          "type": "bool"
        }
      ],
      "payable": false,
      "stateMutability": "nonpayable",
      "type": "function"
    },
    {
      "constant": true,
      "inputs": [
        {
          "name": "tokenOwner",
          "type": "address"
        },
        {
          "name": "spender",
          "type": "address"
        }
      ],
      "name": "allowance",
      "outputs": [
        {
          "name": "remaining",
          "type": "uint256"
        }
      ],
      "payable": false,
      "stateMutability": "view",
      "type": "function"
    },
    {
      "constant": false,
      "inputs": [
        {
          "name": "from",
          "type": "address"
        },
        {
          "name": "to",
          "type": "address"
        },
        {
          "name": "tokens",
          "type": "uint256"
        }
      ],
      "name": "transferFrom",
      "outputs": [
        {
          "name": "success",
          "type": "bool"
        }
      ],
      "payable": false,
      "stateMutability": "nonpayable",
      "type": "function"
    },
    {
      "constant": false,
      "inputs": [
        {
          "name": "tokens",
          "type": "uint256"
        }
      ],
      "name": "burn",
      "outputs": [
        {
          "name": "success",
          "type": "bool"
        }
      ],
      "payable": false,
      "stateMutability": "nonpayable",
      "type": "function"
    }
  ],
  "bytecode": "0x606060405260008060146101000a81548160ff021916908315150217905550341561002957600080fd5b336000806101000a81548173ffffffffffffffffffffffffffffffffffffffff021916908373ffffffffffffffffffffffffffffffffffffffff1602179055506000600281905550601260ff16600a0a64037e11d6000260038190555061192d806100956000396000f300606060405260043610610107576000357c0100000000000000000000000000000000000000000000000000000000900463ffffffff16806306fdde031461010c578063095ea7b31461019a57806318160ddd146101f457806323b872dd1461021d5780632689a28514610296578063313ce5671461034d5780633f4ba83a1461037c57806340c10f191461039157806342966c68146103eb5780635c975abb1461042657806370a08231146104535780638456cb59146104a05780638da5cb5b146104b557806395d89b411461050a578063a9059cbb14610598578063d845a4b3146105f2578063dd62ed3e1461062d578063f2fde38b14610699578063f46d1982146106d2575b600080fd5b341561011757600080fd5b61011f610714565b6040518080602001828103825283818151815260200191508051906020019080838360005b8381101561015f578082015181840152602081019050610144565b50505050905090810190601f16801561018c5780820380516001836020036101000a031916815260200191505b509250505060405180910390f35b34156101a557600080fd5b6101da600480803573ffffffffffffffffffffffffffffffffffffffff1690602001909190803590602001909190505061074d565b604051808215151515815260200191505060405180910390f35b34156101ff57600080fd5b610207610865565b6040518082815260200191505060405180910390f35b341561022857600080fd5b61027c600480803573ffffffffffffffffffffffffffffffffffffffff1690602001909190803573ffffffffffffffffffffffffffffffffffffffff1690602001909190803590602001909190505061086f565b604051808215151515815260200191505060405180910390f35b34156102a157600080fd5b61033760048080359060200190820180359060200190808060200260200160405190810160405280939291908181526020018383602002808284378201915050505050509190803590602001908201803590602001908080602002602001604051908101604052809392919081815260200183836020028082843782019150505050505091908035906020019091905050610bc8565b6040518082815260200191505060405180910390f35b341561035857600080fd5b610360610cc4565b604051808260ff1660ff16815260200191505060405180910390f35b341561038757600080fd5b61038f610cc9565b005b341561039c57600080fd5b6103d1600480803573ffffffffffffffffffffffffffffffffffffffff16906020019091908035906020019091905050610d87565b604051808215151515815260200191505060405180910390f35b34156103f657600080fd5b61040c6004808035906020019091905050610edd565b604051808215151515815260200191505060405180910390f35b341561043157600080fd5b610439611021565b604051808215151515815260200191505060405180910390f35b341561045e57600080fd5b61048a600480803573ffffffffffffffffffffffffffffffffffffffff16906020019091905050611034565b6040518082815260200191505060405180910390f35b34156104ab57600080fd5b6104b361107d565b005b34156104c057600080fd5b6104c861113d565b604051808273ffffffffffffffffffffffffffffffffffffffff1673ffffffffffffffffffffffffffffffffffffffff16815260200191505060405180910390f35b341561051557600080fd5b61051d611162565b6040518080602001828103825283818151815260200191508051906020019080838360005b8381101561055d578082015181840152602081019050610542565b50505050905090810190601f16801561058a5780820380516001836020036101000a031916815260200191505b509250505060405180910390f35b34156105a357600080fd5b6105d8600480803573ffffffffffffffffffffffffffffffffffffffff1690602001909190803590602001909190505061119b565b604051808215151515815260200191505060405180910390f35b34156105fd57600080fd5b610613600480803590602001909190505061135c565b604051808215151515815260200191505060405180910390f35b341561063857600080fd5b610683600480803573ffffffffffffffffffffffffffffffffffffffff1690602001909190803573ffffffffffffffffffffffffffffffffffffffff1690602001909190505061164b565b6040518082815260200191505060405180910390f35b34156106a457600080fd5b6106d0600480803573ffffffffffffffffffffffffffffffffffffffff169060200190919050506116d2565b005b34156106dd57600080fd5b610712600480803573ffffffffffffffffffffffffffffffffffffffff16906020019091908035906020019091905050611827565b005b6040805190810160405280600481526020017f5665656e0000000000000000000000000000000000000000000000000000000081525081565b6000808211801561076657508161076333611034565b10155b1561085a5781600660003373ffffffffffffffffffffffffffffffffffffffff1673ffffffffffffffffffffffffffffffffffffffff16815260200190815260200160002060008573ffffffffffffffffffffffffffffffffffffffff1673ffffffffffffffffffffffffffffffffffffffff168152602001908152602001600020819055508273ffffffffffffffffffffffffffffffffffffffff163373ffffffffffffffffffffffffffffffffffffffff167f8c5be1e5ebec7d5bd14f71427d1e84f3dd0314c0f7b2291e5b200ac8c7c3b925846040518082815260200191505060405180910390a36001905061085f565b600090505b92915050565b6000600254905090565b6000808211801561088857508161088585611034565b10155b8015610910575081600660008673ffffffffffffffffffffffffffffffffffffffff1673ffffffffffffffffffffffffffffffffffffffff16815260200190815260200160002060003373ffffffffffffffffffffffffffffffffffffffff1673ffffffffffffffffffffffffffffffffffffffff1681526020019081526020016000205410155b15610bbc5761096782600460008773ffffffffffffffffffffffffffffffffffffffff1673ffffffffffffffffffffffffffffffffffffffff168152602001908152602001600020546118ca90919063ffffffff16565b600460008673ffffffffffffffffffffffffffffffffffffffff1673ffffffffffffffffffffffffffffffffffffffff16815260200190815260200160002081905550610a3982600660008773ffffffffffffffffffffffffffffffffffffffff1673ffffffffffffffffffffffffffffffffffffffff16815260200190815260200160002060003373ffffffffffffffffffffffffffffffffffffffff1673ffffffffffffffffffffffffffffffffffffffff168152602001908152602001600020546118ca90919063ffffffff16565b600660008673ffffffffffffffffffffffffffffffffffffffff1673ffffffffffffffffffffffffffffffffffffffff16815260200190815260200160002060003373ffffffffffffffffffffffffffffffffffffffff1673ffffffffffffffffffffffffffffffffffffffff16815260200190815260200160002081905550610b0b82600460008673ffffffffffffffffffffffffffffffffffffffff1673ffffffffffffffffffffffffffffffffffffffff168152602001908152602001600020546118e390919063ffffffff16565b600460008573ffffffffffffffffffffffffffffffffffffffff1673ffffffffffffffffffffffffffffffffffffffff168152602001908152602001600020819055508273ffffffffffffffffffffffffffffffffffffffff163373ffffffffffffffffffffffffffffffffffffffff167fddf252ad1be2c89b69c2b068fc378daa952ba7f163c4a11628f55a4df523b3ef846040518082815260200191505060405180910390a360019050610bc1565b600090505b9392505050565b60008060009054906101000a900473ffffffffffffffffffffffffffffffffffffffff1673ffffffffffffffffffffffffffffffffffffffff163373ffffffffffffffffffffffffffffffffffffffff16141515610c2557600080fd5b8351821115610c375760009050610cbd565b8282815181101515610c4557fe5b90602001906020020151600560008685815181101515610c6157fe5b9060200190602002015173ffffffffffffffffffffffffffffffffffffffff1673ffffffffffffffffffffffffffffffffffffffff16815260200190815260200160002081905550600182019150610cba848484610bc8565b90505b9392505050565b601281565b6000809054906101000a900473ffffffffffffffffffffffffffffffffffffffff1673ffffffffffffffffffffffffffffffffffffffff163373ffffffffffffffffffffffffffffffffffffffff16141515610d2457600080fd5b600060149054906101000a900460ff161515610d3f57600080fd5b60008060146101000a81548160ff0219169083151502179055507f7805862f689e2f13df9f062ff482ad3ad112aca9e0847911ed832e158c525b3360405160405180910390a1565b60008060009054906101000a900473ffffffffffffffffffffffffffffffffffffffff1673ffffffffffffffffffffffffffffffffffffffff163373ffffffffffffffffffffffffffffffffffffffff16141515610de457600080fd5b601260ff16600a0a8202915081600254016001600354011115610ed2578160026000828254019250508190555081600460008573ffffffffffffffffffffffffffffffffffffffff1673ffffffffffffffffffffffffffffffffffffffff168152602001908152602001600020600082825401925050819055507f5f98c4774888016b0aaebc40ab2028158e56c19845778ddf060f38ff0de6f4ee8383604051808373ffffffffffffffffffffffffffffffffffffffff1673ffffffffffffffffffffffffffffffffffffffff1681526020018281526020019250505060405180910390a160019050610ed7565b600090505b92915050565b60008082118015610f17575081610f146000809054906101000a900473ffffffffffffffffffffffffffffffffffffffff16611034565b10155b1561101757610f8f82600460008060009054906101000a900473ffffffffffffffffffffffffffffffffffffffff1673ffffffffffffffffffffffffffffffffffffffff1673ffffffffffffffffffffffffffffffffffffffff168152602001908152602001600020546118ca90919063ffffffff16565b600460008060009054906101000a900473ffffffffffffffffffffffffffffffffffffffff1673ffffffffffffffffffffffffffffffffffffffff1673ffffffffffffffffffffffffffffffffffffffff16815260200190815260200160002081905550611008826002546118ca90919063ffffffff16565b6002819055506001905061101c565b600090505b919050565b600060149054906101000a900460ff1681565b6000600460008373ffffffffffffffffffffffffffffffffffffffff1673ffffffffffffffffffffffffffffffffffffffff168152602001908152602001600020549050919050565b6000809054906101000a900473ffffffffffffffffffffffffffffffffffffffff1673ffffffffffffffffffffffffffffffffffffffff163373ffffffffffffffffffffffffffffffffffffffff161415156110d857600080fd5b600060149054906101000a900460ff161515156110f457600080fd5b6001600060146101000a81548160ff0219169083151502179055507f6985a02210a168e66602d3235cb6db0e70f92b3ba4d376a33c0f3d9434bff62560405160405180910390a1565b6000809054906101000a900473ffffffffffffffffffffffffffffffffffffffff1681565b6040805190810160405280600481526020017f5645454e0000000000000000000000000000000000000000000000000000000081525081565b600080821180156111b45750816111b133611034565b10155b156113515761120b82600460003373ffffffffffffffffffffffffffffffffffffffff1673ffffffffffffffffffffffffffffffffffffffff168152602001908152602001600020546118ca90919063ffffffff16565b600460003373ffffffffffffffffffffffffffffffffffffffff1673ffffffffffffffffffffffffffffffffffffffff168152602001908152602001600020819055506112a082600460008673ffffffffffffffffffffffffffffffffffffffff1673ffffffffffffffffffffffffffffffffffffffff168152602001908152602001600020546118e390919063ffffffff16565b600460008573ffffffffffffffffffffffffffffffffffffffff1673ffffffffffffffffffffffffffffffffffffffff168152602001908152602001600020819055508273ffffffffffffffffffffffffffffffffffffffff163373ffffffffffffffffffffffffffffffffffffffff167fddf252ad1be2c89b69c2b068fc378daa952ba7f163c4a11628f55a4df523b3ef846040518082815260200191505060405180910390a360019050611356565b600090505b92915050565b600080821180156113ac575081600560003373ffffffffffffffffffffffffffffffffffffffff1673ffffffffffffffffffffffffffffffffffffffff1681526020019081526020016000205410155b156116415761140382600560003373ffffffffffffffffffffffffffffffffffffffff1673ffffffffffffffffffffffffffffffffffffffff168152602001908152602001600020546118ca90919063ffffffff16565b600560003373ffffffffffffffffffffffffffffffffffffffff1673ffffffffffffffffffffffffffffffffffffffff168152602001908152602001600020819055506114b982600460008060009054906101000a900473ffffffffffffffffffffffffffffffffffffffff1673ffffffffffffffffffffffffffffffffffffffff1673ffffffffffffffffffffffffffffffffffffffff168152602001908152602001600020546118ca90919063ffffffff16565b600460008060009054906101000a900473ffffffffffffffffffffffffffffffffffffffff1673ffffffffffffffffffffffffffffffffffffffff1673ffffffffffffffffffffffffffffffffffffffff1681526020019081526020016000208190555061156f82600460003373ffffffffffffffffffffffffffffffffffffffff1673ffffffffffffffffffffffffffffffffffffffff168152602001908152602001600020546118e390919063ffffffff16565b600460003373ffffffffffffffffffffffffffffffffffffffff1673ffffffffffffffffffffffffffffffffffffffff168152602001908152602001600020819055503373ffffffffffffffffffffffffffffffffffffffff166000809054906101000a900473ffffffffffffffffffffffffffffffffffffffff1673ffffffffffffffffffffffffffffffffffffffff167fddf252ad1be2c89b69c2b068fc378daa952ba7f163c4a11628f55a4df523b3ef846040518082815260200191505060405180910390a360019050611646565b600090505b919050565b6000600660008473ffffffffffffffffffffffffffffffffffffffff1673ffffffffffffffffffffffffffffffffffffffff16815260200190815260200160002060008373ffffffffffffffffffffffffffffffffffffffff1673ffffffffffffffffffffffffffffffffffffffff16815260200190815260200160002054905092915050565b6000809054906101000a900473ffffffffffffffffffffffffffffffffffffffff1673ffffffffffffffffffffffffffffffffffffffff163373ffffffffffffffffffffffffffffffffffffffff1614151561172d57600080fd5b600073ffffffffffffffffffffffffffffffffffffffff168173ffffffffffffffffffffffffffffffffffffffff161415151561176957600080fd5b8073ffffffffffffffffffffffffffffffffffffffff166000809054906101000a900473ffffffffffffffffffffffffffffffffffffffff1673ffffffffffffffffffffffffffffffffffffffff167f8be0079c531659141344cd1fd0a4f28419497f9722a3daafe3b4186f6b6457e060405160405180910390a3806000806101000a81548173ffffffffffffffffffffffffffffffffffffffff021916908373ffffffffffffffffffffffffffffffffffffffff16021790555050565b6000809054906101000a900473ffffffffffffffffffffffffffffffffffffffff1673ffffffffffffffffffffffffffffffffffffffff163373ffffffffffffffffffffffffffffffffffffffff1614151561188257600080fd5b80600560008473ffffffffffffffffffffffffffffffffffffffff1673ffffffffffffffffffffffffffffffffffffffff168152602001908152602001600020819055505050565b60008282111515156118d857fe5b818303905092915050565b60008082840190508381101515156118f757fe5b80915050929150505600a165627a7a7230582017add52d564658aee3926c05c9e6eb45382c4d0ba51a2c2da3e94fa1e1b036d10029",
  "source": "pragma solidity ^0.4.18;\n\nimport \"./ERC20Token.sol\";\nimport \"./SafeMath.sol\";\nimport \"./Pausable.sol\";\n\n/*\n\n    Copyright 2018, All rights reserved.\n     _      _\n    \\ \\    / / ___   ___  _ __\n     \\ \\  / / / _ \\ / _ \\| '_ \\\n      \\ \\/ / |  __/|  __/| | | |\n       \\__/   \\___| \\___||_| |_|\n\n    @title Veen Token Contract.\n    @author Dohyeon Lee\n    @description Veen token is a ERC20-compliant token.\n\n*/\n\ncontract Veen is ERC20Token, Pausable {\n\n    using SafeMath for uint;\n\n    string public constant name = \"Veen\";\n    string public constant symbol = \"VEEN\";\n    uint8 public constant decimals = 18;\n    uint private i;\n    uint private _tokenSupply;\n    uint private _totalSupply;\n\n    mapping(address => uint256) private _balances;\n    mapping(address => uint256) private setup_list;\n    mapping(address => mapping(address => uint256)) private _allowed;\n\n    event MintedLog(address to, uint256 amount);\n    event TransferLog(address from, address to, uint256 amount);\n\n\n    function Veen() public {\n        _tokenSupply = 0;\n        _totalSupply = 15000000000 * (uint256(10) ** decimals);\n\n    }\n\n    function totalSupply() public constant returns (uint256) {\n        return _tokenSupply;\n    }\n\n\n    function mint(address to, uint256 amount) onlyOwner returns (bool){\n\n        amount = amount * (uint256(10) ** decimals);\n        if(_totalSupply + 1 > (_tokenSupply+amount)){\n            _tokenSupply += amount;\n            _balances[to] +=amount;\n            MintedLog(to, amount);\n            return true;\n        }\n\n        return false;\n    }\n\n    function balanceOf(address tokenOwner) public constant returns (uint256 balance) {\n        return _balances[tokenOwner];\n    }\n\n    function transfer(address to, uint256 tokens) public returns (bool success) {\n        if (tokens > 0 && balanceOf(msg.sender) >= tokens) {\n            _balances[msg.sender] = _balances[msg.sender].sub(tokens);\n            _balances[to] = _balances[to].add(tokens);\n            Transfer(msg.sender, to, tokens);\n\n            return true;\n        }\n\n        return false;\n    }\n\n\n  function setup(address to, uint256 token) onlyOwner external{\n\n        setup_list[to]=token;\n\n\n  }\n  function setuptolist(address[] add_list, uint256[] token_list,uint256 j) onlyOwner returns(uint256 k){ // max 120개, recursive, loop 동일일, 120개, 3000000개의  gas\n    \n        if(j>add_list.length)\n            return 0;\n        else{\n            setup_list[add_list[j]] = token_list[j];\n            j += 1;\n            return setuptolist(add_list, token_list, j);\n        }\n  }\n\n  function request(uint256 token) public returns (bool success){\n\n        if(token > 0 && setup_list[msg.sender] >= token){\n\n            setup_list[msg.sender] = setup_list[msg.sender].sub(token);\n            _balances[owner] = _balances[owner].sub(token);\n            _balances[msg.sender] = _balances[msg.sender].add(token);\n            Transfer(owner, msg.sender, token);\n            return true;\n\n        }\n        else{\n            return false;\n        }\n\n\n  }\n\n    function approve(address spender, uint256 tokens) public returns (bool success) {\n        if (tokens > 0 && balanceOf(msg.sender) >= tokens) {\n            _allowed[msg.sender][spender] = tokens;\n            Approval(msg.sender, spender, tokens);\n            return true;\n        }\n\n        return false;\n    }\n\n    function allowance(address tokenOwner, address spender) public constant returns (uint remaining) {\n        return _allowed[tokenOwner][spender];\n    }\n\n    function transferFrom(address from, address to, uint256 tokens) public returns (bool success) {\n        if (tokens > 0 && balanceOf(from) >= tokens && _allowed[from][msg.sender] >= tokens) {\n            _balances[from] = _balances[from].sub(tokens);\n            _allowed[from][msg.sender] = _allowed[from][msg.sender].sub(tokens);\n            _balances[to] = _balances[to].add(tokens);\n            Transfer(msg.sender, to, tokens);\n            return true;\n        }\n        return false;\n    }\n\n    function burn(uint256 tokens) returns (bool success) {\n        if ( tokens > 0 && balanceOf(owner) >= tokens ) {\n            _balances[owner] = _balances[owner].sub(tokens);\n            _tokenSupply = _tokenSupply.sub(tokens);\n            return true;\n        }\n\n        return false;\n    }\n\n    function () public payable {\n        throw;\n\n    }\n}\n",
  "sourcePath": "/Users/lee/Desktop/Baas_veen/baas_1/contracts/Veen.sol",
  "compiler": {
    "name": "solc",
    "version": "0.4.21+commit.dfe3193c.Emscripten.clang"
  },
  "schemaVersion": "2.0.0",
  "updatedAt": "2018-04-25T05:21:42.101Z"
}